{"abi":[{"type":"function","name":"challenges","inputs":[{"name":"","type":"bytes32","internalType":"bytes32"}],"outputs":[{"name":"promptHash","type":"bytes32","internalType":"bytes32"},{"name":"startBlock","type":"uint64","internalType":"uint64"},{"name":"commitDeadline","type":"uint64","internalType":"uint64"},{"name":"revealDeadline","type":"uint64","internalType":"uint64"},{"name":"verifier","type":"address","internalType":"address"},{"name":"finalized","type":"bool","internalType":"bool"},{"name":"score","type":"uint8","internalType":"uint8"}],"stateMutability":"view"},{"type":"function","name":"commit","inputs":[{"name":"challengeId","type":"bytes32","internalType":"bytes32"},{"name":"commitHash","type":"bytes32","internalType":"bytes32"}],"outputs":[],"stateMutability":"nonpayable"},{"type":"function","name":"commitments","inputs":[{"name":"","type":"bytes32","internalType":"bytes32"},{"name":"","type":"address","internalType":"address"}],"outputs":[{"name":"commitHash","type":"bytes32","internalType":"bytes32"},{"name":"commitBlock","type":"uint64","internalType":"uint64"},{"name":"revealedAnswer","type":"bytes32","internalType":"bytes32"},{"name":"revealed","type":"bool","internalType":"bool"}],"stateMutability":"view"},{"type":"function","name":"createChallenge","inputs":[{"name":"promptHash","type":"bytes32","internalType":"bytes32"},{"name":"commitBlocks","type":"uint64","internalType":"uint64"},{"name":"revealBlocks","type":"uint64","internalType":"uint64"}],"outputs":[{"name":"","type":"bytes32","internalType":"bytes32"}],"stateMutability":"nonpayable"},{"type":"function","name":"finalize","inputs":[{"name":"challengeId","type":"bytes32","internalType":"bytes32"}],"outputs":[],"stateMutability":"nonpayable"},{"type":"function","name":"getChallenge","inputs":[{"name":"challengeId","type":"bytes32","internalType":"bytes32"}],"outputs":[{"name":"promptHash","type":"bytes32","internalType":"bytes32"},{"name":"startBlock","type":"uint64","internalType":"uint64"},{"name":"commitDeadline","type":"uint64","internalType":"uint64"},{"name":"revealDeadline","type":"uint64","internalType":"uint64"},{"name":"verifier","type":"address","internalType":"address"},{"name":"finalized","type":"bool","internalType":"bool"},{"name":"score","type":"uint8","internalType":"uint8"}],"stateMutability":"view"},{"type":"function","name":"getParticipants","inputs":[{"name":"challengeId","type":"bytes32","internalType":"bytes32"}],"outputs":[{"name":"","type":"address[]","internalType":"address[]"}],"stateMutability":"view"},{"type":"function","name":"participants","inputs":[{"name":"","type":"bytes32","internalType":"bytes32"},{"name":"","type":"uint256","internalType":"uint256"}],"outputs":[{"name":"","type":"address","internalType":"address"}],"stateMutability":"view"},{"type":"function","name":"reveal","inputs":[{"name":"challengeId","type":"bytes32","internalType":"bytes32"},{"name":"answer","type":"bytes32","internalType":"bytes32"},{"name":"salt","type":"bytes32","internalType":"bytes32"}],"outputs":[],"stateMutability":"nonpayable"},{"type":"event","name":"ChallengeCreated","inputs":[{"name":"id","type":"bytes32","indexed":true,"internalType":"bytes32"},{"name":"promptHash","type":"bytes32","indexed":false,"internalType":"bytes32"},{"name":"commitDeadline","type":"uint64","indexed":false,"internalType":"uint64"},{"name":"revealDeadline","type":"uint64","indexed":false,"internalType":"uint64"}],"anonymous":false},{"type":"event","name":"Committed","inputs":[{"name":"challengeId","type":"bytes32","indexed":true,"internalType":"bytes32"},{"name":"agent","type":"address","indexed":true,"internalType":"address"},{"name":"blockNumber","type":"uint64","indexed":false,"internalType":"uint64"}],"anonymous":false},{"type":"event","name":"Finalized","inputs":[{"name":"challengeId","type":"bytes32","indexed":true,"internalType":"bytes32"},{"name":"score","type":"uint8","indexed":false,"internalType":"uint8"},{"name":"participantCount","type":"uint256","indexed":false,"internalType":"uint256"},{"name":"revealedCount","type":"uint256","indexed":false,"internalType":"uint256"}],"anonymous":false},{"type":"event","name":"Revealed","inputs":[{"name":"challengeId","type":"bytes32","indexed":true,"internalType":"bytes32"},{"name":"agent","type":"address","indexed":true,"internalType":"address"},{"name":"answer","type":"bytes32","indexed":false,"internalType":"bytes32"}],"anonymous":false}],"bytecode":{"object":"0x6080604052348015600e575f5ffd5b506121bc8061001c5f395ff3fe608060405234801561000f575f5ffd5b5060043610610091575f3560e01c8063972b7f1411610064578063972b7f1414610147578063be02eb511461017a578063c1e69b66146101aa578063e3ce094d146101e0578063f569fbd1146101fc57610091565b80630b0235be14610095578063414d47f4146100c5578063458d2bf1146100f557806392584d801461012b575b5f5ffd5b6100af60048036038101906100aa9190611375565b610218565b6040516100bc9190611487565b60405180910390f35b6100df60048036038101906100da91906114da565b6102b4565b6040516100ec9190611527565b60405180910390f35b61010f600480360381019061010a9190611375565b6102fc565b60405161012297969594939291906115a6565b60405180910390f35b61014560048036038101906101409190611375565b6103c6565b005b610161600480360381019061015c919061163d565b61092b565b604051610171949392919061167b565b60405180910390f35b610194600480360381019061018f91906116e8565b610981565b6040516101a19190611738565b60405180910390f35b6101c460048036038101906101bf9190611375565b610c6d565b6040516101d797969594939291906115a6565b60405180910390f35b6101fa60048036038101906101f59190611751565b610d1e565b005b6102166004803603810190610211919061178f565b61102b565b005b606060025f8381526020019081526020015f208054806020026020016040519081016040528092919081815260200182805480156102a857602002820191905f5260205f20905b815f9054906101000a900473ffffffffffffffffffffffffffffffffffffffff1673ffffffffffffffffffffffffffffffffffffffff168152602001906001019080831161025f575b50505050509050919050565b6002602052815f5260405f2081815481106102cd575f80fd5b905f5260205f20015f915091509054906101000a900473ffffffffffffffffffffffffffffffffffffffff1681565b5f5f5f5f5f5f5f5f5f5f8a81526020019081526020015f209050805f0154816001015f9054906101000a900467ffffffffffffffff168260010160089054906101000a900467ffffffffffffffff168360010160109054906101000a900467ffffffffffffffff16846002015f9054906101000a900473ffffffffffffffffffffffffffffffffffffffff168560020160149054906101000a900460ff168660020160159054906101000a900460ff16975097509750975097509750975050919395979092949650565b5f5f5f8381526020019081526020015f2090505f816001015f9054906101000a900467ffffffffffffffff1667ffffffffffffffff161161043c576040517f08c379a000000000000000000000000000000000000000000000000000000000815260040161043390611839565b60405180910390fd5b8060010160109054906101000a900467ffffffffffffffff1667ffffffffffffffff1643116104a0576040517f08c379a0000000000000000000000000000000000000000000000000000000008152600401610497906118a1565b60405180910390fd5b8060020160149054906101000a900460ff16156104f2576040517f08c379a00000000000000000000000000000000000000000000000000000000081526004016104e990611909565b60405180910390fd5b806002015f9054906101000a900473ffffffffffffffffffffffffffffffffffffffff1673ffffffffffffffffffffffffffffffffffffffff163373ffffffffffffffffffffffffffffffffffffffff1614610583576040517f08c379a000000000000000000000000000000000000000000000000000000000815260040161057a90611971565b60405180910390fd5b5f60025f8481526020019081526020015f2080548060200260200160405190810160405280929190818152602001828054801561061257602002820191905f5260205f20905b815f9054906101000a900473ffffffffffffffffffffffffffffffffffffffff1673ffffffffffffffffffffffffffffffffffffffff16815260200190600101908083116105c9575b505050505090505f815190505f81036106a35760018360020160146101000a81548160ff0219169083151502179055505f8360020160156101000a81548160ff021916908360ff160217905550837f1cdb90ae67685ae633b8349394133b0cd65bb2647e85a79524fb01b82d4c1bbb5f5f5f60405161069393929190611a01565b60405180910390a2505050610928565b5f67ffffffffffffffff90505f5f90505f5f90505f5f90505b848110156107fc575f60015f8a81526020019081526020015f205f8884815181106106ea576106e9611a36565b5b602002602001015173ffffffffffffffffffffffffffffffffffffffff1673ffffffffffffffffffffffffffffffffffffffff1681526020019081526020015f2090508467ffffffffffffffff16816001015f9054906101000a900467ffffffffffffffff1667ffffffffffffffff16101561077b57806001015f9054906101000a900467ffffffffffffffff1694505b8367ffffffffffffffff16816001015f9054906101000a900467ffffffffffffffff1667ffffffffffffffff1611156107c957806001015f9054906101000a900467ffffffffffffffff1693505b806003015f9054906101000a900460ff16156107ee5782806107ea90611a90565b9350505b5080806001019150506106bc565b505f838361080a9190611ad7565b90505f60028267ffffffffffffffff16116108285760649050610865565b60058267ffffffffffffffff16116108435760509050610864565b600a8267ffffffffffffffff161161085e57603c9050610863565b602890505b5b5b5f866064856108749190611b12565b61087e9190611b80565b90505f60028261088e9190611bb0565b60028461089b9190611bb0565b6108a59190611be0565b905060018a60020160146101000a81548160ff021916908315150217905550808a60020160156101000a81548160ff021916908360ff1602179055508a7f1cdb90ae67685ae633b8349394133b0cd65bb2647e85a79524fb01b82d4c1bbb828a8860405161091593929190611c23565b60405180910390a2505050505050505050505b50565b6001602052815f5260405f20602052805f5260405f205f9150915050805f015490806001015f9054906101000a900467ffffffffffffffff1690806002015490806003015f9054906101000a900460ff16905084565b5f5f8367ffffffffffffffff16116109ce576040517f08c379a00000000000000000000000000000000000000000000000000000000081526004016109c590611ca2565b60405180910390fd5b5f8267ffffffffffffffff1611610a1a576040517f08c379a0000000000000000000000000000000000000000000000000000000008152600401610a1190611d0a565b60405180910390fd5b5f84433342604051602001610a329493929190611dad565b6040516020818303038152906040528051906020012090506040518060e001604052808681526020014367ffffffffffffffff1681526020018543610a779190611dfa565b67ffffffffffffffff168152602001848643610a939190611dfa565b610a9d9190611dfa565b67ffffffffffffffff1681526020013373ffffffffffffffffffffffffffffffffffffffff1681526020015f151581526020015f60ff168152505f5f8381526020019081526020015f205f820151815f01556020820151816001015f6101000a81548167ffffffffffffffff021916908367ffffffffffffffff16021790555060408201518160010160086101000a81548167ffffffffffffffff021916908367ffffffffffffffff16021790555060608201518160010160106101000a81548167ffffffffffffffff021916908367ffffffffffffffff1602179055506080820151816002015f6101000a81548173ffffffffffffffffffffffffffffffffffffffff021916908373ffffffffffffffffffffffffffffffffffffffff16021790555060a08201518160020160146101000a81548160ff02191690831515021790555060c08201518160020160156101000a81548160ff021916908360ff160217905550905050807fe294ec3db87d916321dbf6219fa66349d98747c7e0f8c5ee526d011a9725dcb7868643610c349190611dfa565b868843610c419190611dfa565b610c4b9190611dfa565b604051610c5a93929190611e35565b60405180910390a2809150509392505050565b5f602052805f5260405f205f91509050805f015490806001015f9054906101000a900467ffffffffffffffff16908060010160089054906101000a900467ffffffffffffffff16908060010160109054906101000a900467ffffffffffffffff1690806002015f9054906101000a900473ffffffffffffffffffffffffffffffffffffffff16908060020160149054906101000a900460ff16908060020160159054906101000a900460ff16905087565b5f5f5f8481526020019081526020015f2090505f816001015f9054906101000a900467ffffffffffffffff1667ffffffffffffffff1611610d94576040517f08c379a0000000000000000000000000000000000000000000000000000000008152600401610d8b90611839565b60405180910390fd5b8060010160089054906101000a900467ffffffffffffffff1667ffffffffffffffff16431115610df9576040517f08c379a0000000000000000000000000000000000000000000000000000000008152600401610df090611eb4565b60405180910390fd5b5f5f1b60015f8581526020019081526020015f205f3373ffffffffffffffffffffffffffffffffffffffff1673ffffffffffffffffffffffffffffffffffffffff1681526020019081526020015f205f015414610e8b576040517f08c379a0000000000000000000000000000000000000000000000000000000008152600401610e8290611f1c565b60405180910390fd5b60405180608001604052808381526020014367ffffffffffffffff1681526020015f5f1b81526020015f151581525060015f8581526020019081526020015f205f3373ffffffffffffffffffffffffffffffffffffffff1673ffffffffffffffffffffffffffffffffffffffff1681526020019081526020015f205f820151815f01556020820151816001015f6101000a81548167ffffffffffffffff021916908367ffffffffffffffff160217905550604082015181600201556060820151816003015f6101000a81548160ff02191690831515021790555090505060025f8481526020019081526020015f2033908060018154018082558091505060019003905f5260205f20015f9091909190916101000a81548173ffffffffffffffffffffffffffffffffffffffff021916908373ffffffffffffffffffffffffffffffffffffffff1602179055503373ffffffffffffffffffffffffffffffffffffffff16837f383bf7b9fa1b9617e9b6d9ef594f7fb1b445696c91e2053e48563a8a2be4b38c4360405161101e9190611f3a565b60405180910390a3505050565b5f5f5f8581526020019081526020015f2090505f816001015f9054906101000a900467ffffffffffffffff1667ffffffffffffffff16116110a1576040517f08c379a000000000000000000000000000000000000000000000000000000000815260040161109890611839565b60405180910390fd5b8060010160089054906101000a900467ffffffffffffffff1667ffffffffffffffff164311611105576040517f08c379a00000000000000000000000000000000000000000000000000000000081526004016110fc90611f9d565b60405180910390fd5b8060010160109054906101000a900467ffffffffffffffff1667ffffffffffffffff1643111561116a576040517f08c379a000000000000000000000000000000000000000000000000000000000815260040161116190612005565b60405180910390fd5b5f60015f8681526020019081526020015f205f3373ffffffffffffffffffffffffffffffffffffffff1673ffffffffffffffffffffffffffffffffffffffff1681526020019081526020015f2090505f5f1b815f015403611200576040517f08c379a00000000000000000000000000000000000000000000000000000000081526004016111f79061206d565b60405180910390fd5b806003015f9054906101000a900460ff1615611251576040517f08c379a0000000000000000000000000000000000000000000000000000000008152600401611248906120d5565b60405180910390fd5b5f84846040516020016112659291906120f3565b604051602081830303815290604052805190602001209050815f015481146112c2576040517f08c379a00000000000000000000000000000000000000000000000000000000081526004016112b990612168565b60405180910390fd5b8482600201819055506001826003015f6101000a81548160ff0219169083151502179055503373ffffffffffffffffffffffffffffffffffffffff16867fb389f4c76a55484f7e090e125d3c16bf2928b16148df9eff53524462bda7a1098760405161132e9190611738565b60405180910390a3505050505050565b5f5ffd5b5f819050919050565b61135481611342565b811461135e575f5ffd5b50565b5f8135905061136f8161134b565b92915050565b5f6020828403121561138a5761138961133e565b5b5f61139784828501611361565b91505092915050565b5f81519050919050565b5f82825260208201905092915050565b5f819050602082019050919050565b5f73ffffffffffffffffffffffffffffffffffffffff82169050919050565b5f6113f2826113c9565b9050919050565b611402816113e8565b82525050565b5f61141383836113f9565b60208301905092915050565b5f602082019050919050565b5f611435826113a0565b61143f81856113aa565b935061144a836113ba565b805f5b8381101561147a5781516114618882611408565b975061146c8361141f565b92505060018101905061144d565b5085935050505092915050565b5f6020820190508181035f83015261149f818461142b565b905092915050565b5f819050919050565b6114b9816114a7565b81146114c3575f5ffd5b50565b5f813590506114d4816114b0565b92915050565b5f5f604083850312156114f0576114ef61133e565b5b5f6114fd85828601611361565b925050602061150e858286016114c6565b9150509250929050565b611521816113e8565b82525050565b5f60208201905061153a5f830184611518565b92915050565b61154981611342565b82525050565b5f67ffffffffffffffff82169050919050565b61156b8161154f565b82525050565b5f8115159050919050565b61158581611571565b82525050565b5f60ff82169050919050565b6115a08161158b565b82525050565b5f60e0820190506115b95f83018a611540565b6115c66020830189611562565b6115d36040830188611562565b6115e06060830187611562565b6115ed6080830186611518565b6115fa60a083018561157c565b61160760c0830184611597565b98975050505050505050565b61161c816113e8565b8114611626575f5ffd5b50565b5f8135905061163781611613565b92915050565b5f5f604083850312156116535761165261133e565b5b5f61166085828601611361565b925050602061167185828601611629565b9150509250929050565b5f60808201905061168e5f830187611540565b61169b6020830186611562565b6116a86040830185611540565b6116b5606083018461157c565b95945050505050565b6116c78161154f565b81146116d1575f5ffd5b50565b5f813590506116e2816116be565b92915050565b5f5f5f606084860312156116ff576116fe61133e565b5b5f61170c86828701611361565b935050602061171d868287016116d4565b925050604061172e868287016116d4565b9150509250925092565b5f60208201905061174b5f830184611540565b92915050565b5f5f604083850312156117675761176661133e565b5b5f61177485828601611361565b925050602061178585828601611361565b9150509250929050565b5f5f5f606084860312156117a6576117a561133e565b5b5f6117b386828701611361565b93505060206117c486828701611361565b92505060406117d586828701611361565b9150509250925092565b5f82825260208201905092915050565b7f4368616c6c656e676520646f6573206e6f7420657869737400000000000000005f82015250565b5f6118236018836117df565b915061182e826117ef565b602082019050919050565b5f6020820190508181035f83015261185081611817565b9050919050565b7f52657665616c207068617365206e6f7420656e646564000000000000000000005f82015250565b5f61188b6016836117df565b915061189682611857565b602082019050919050565b5f6020820190508181035f8301526118b88161187f565b9050919050565b7f416c72656164792066696e616c697a65640000000000000000000000000000005f82015250565b5f6118f36011836117df565b91506118fe826118bf565b602082019050919050565b5f6020820190508181035f830152611920816118e7565b9050919050565b7f4f6e6c792076657269666965722063616e2066696e616c697a650000000000005f82015250565b5f61195b601a836117df565b915061196682611927565b602082019050919050565b5f6020820190508181035f8301526119888161194f565b9050919050565b5f819050919050565b5f819050919050565b5f6119bb6119b66119b18461198f565b611998565b61158b565b9050919050565b6119cb816119a1565b82525050565b5f6119eb6119e66119e18461198f565b611998565b6114a7565b9050919050565b6119fb816119d1565b82525050565b5f606082019050611a145f8301866119c2565b611a2160208301856119f2565b611a2e60408301846119f2565b949350505050565b7f4e487b71000000000000000000000000000000000000000000000000000000005f52603260045260245ffd5b7f4e487b71000000000000000000000000000000000000000000000000000000005f52601160045260245ffd5b5f611a9a826114a7565b91507fffffffffffffffffffffffffffffffffffffffffffffffffffffffffffffffff8203611acc57611acb611a63565b5b600182019050919050565b5f611ae18261154f565b9150611aec8361154f565b9250828203905067ffffffffffffffff811115611b0c57611b0b611a63565b5b92915050565b5f611b1c826114a7565b9150611b27836114a7565b9250828202611b35816114a7565b91508282048414831517611b4c57611b4b611a63565b5b5092915050565b7f4e487b71000000000000000000000000000000000000000000000000000000005f52601260045260245ffd5b5f611b8a826114a7565b9150611b95836114a7565b925082611ba557611ba4611b53565b5b828204905092915050565b5f611bba8261158b565b9150611bc58361158b565b925082611bd557611bd4611b53565b5b828204905092915050565b5f611bea8261158b565b9150611bf58361158b565b9250828201905060ff811115611c0e57611c0d611a63565b5b92915050565b611c1d816114a7565b82525050565b5f606082019050611c365f830186611597565b611c436020830185611c14565b611c506040830184611c14565b949350505050565b7f436f6d6d6974207068617365206d757374206265203e203000000000000000005f82015250565b5f611c8c6018836117df565b9150611c9782611c58565b602082019050919050565b5f6020820190508181035f830152611cb981611c80565b9050919050565b7f52657665616c207068617365206d757374206265203e203000000000000000005f82015250565b5f611cf46018836117df565b9150611cff82611cc0565b602082019050919050565b5f6020820190508181035f830152611d2181611ce8565b9050919050565b5f819050919050565b611d42611d3d82611342565b611d28565b82525050565b5f819050919050565b611d62611d5d826114a7565b611d48565b82525050565b5f8160601b9050919050565b5f611d7e82611d68565b9050919050565b5f611d8f82611d74565b9050919050565b611da7611da2826113e8565b611d85565b82525050565b5f611db88287611d31565b602082019150611dc88286611d51565b602082019150611dd88285611d96565b601482019150611de88284611d51565b60208201915081905095945050505050565b5f611e048261154f565b9150611e0f8361154f565b9250828201905067ffffffffffffffff811115611e2f57611e2e611a63565b5b92915050565b5f606082019050611e485f830186611540565b611e556020830185611562565b611e626040830184611562565b949350505050565b7f436f6d6d697420706861736520656e64656400000000000000000000000000005f82015250565b5f611e9e6012836117df565b9150611ea982611e6a565b602082019050919050565b5f6020820190508181035f830152611ecb81611e92565b9050919050565b7f416c726561647920636f6d6d69747465640000000000000000000000000000005f82015250565b5f611f066011836117df565b9150611f1182611ed2565b602082019050919050565b5f6020820190508181035f830152611f3381611efa565b9050919050565b5f602082019050611f4d5f830184611562565b92915050565b7f436f6d6d6974207068617365206e6f7420656e646564000000000000000000005f82015250565b5f611f876016836117df565b9150611f9282611f53565b602082019050919050565b5f6020820190508181035f830152611fb481611f7b565b9050919050565b7f52657665616c20706861736520656e64656400000000000000000000000000005f82015250565b5f611fef6012836117df565b9150611ffa82611fbb565b602082019050919050565b5f6020820190508181035f83015261201c81611fe3565b9050919050565b7f4e6f7420636f6d6d6974746564000000000000000000000000000000000000005f82015250565b5f612057600d836117df565b915061206282612023565b602082019050919050565b5f6020820190508181035f8301526120848161204b565b9050919050565b7f416c72656164792072657665616c6564000000000000000000000000000000005f82015250565b5f6120bf6010836117df565b91506120ca8261208b565b602082019050919050565b5f6020820190508181035f8301526120ec816120b3565b9050919050565b5f6120fe8285611d31565b60208201915061210e8284611d31565b6020820191508190509392505050565b7f496e76616c69642072657665616c0000000000000000000000000000000000005f82015250565b5f612152600e836117df565b915061215d8261211e565b602082019050919050565b5f6020820190508181035f83015261217f81612146565b905091905056fea2646970667358221220769dfa82e4e0acd25d8efe1d7bd33d3b5cedab4ac1f16a3a48632d386d20aa9f64736f6c63430008210033","linkReferences":{}},"methodIdentifiers":{"challenges(bytes32)":"c1e69b66","commit(bytes32,bytes32)":"e3ce094d","commitments(bytes32,address)":"972b7f14","createChallenge(bytes32,uint64,uint64)":"be02eb51","finalize(bytes32)":"92584d80","getChallenge(bytes32)":"458d2bf1","getParticipants(bytes32)":"0b0235be","participants(bytes32,uint256)":"414d47f4","reveal(bytes32,bytes32,bytes32)":"f569fbd1"},"id":0}